{
  "contractName": "Crowdfunding",
  "abi": [
    {
      "inputs": [],
      "payable": false,
      "stateMutability": "nonpayable",
      "type": "constructor"
    },
    {
      "payable": true,
      "stateMutability": "payable",
      "type": "fallback"
    },
    {
      "constant": true,
      "inputs": [],
      "name": "author",
      "outputs": [
        {
          "internalType": "address",
          "name": "",
          "type": "address"
        }
      ],
      "payable": false,
      "stateMutability": "view",
      "type": "function"
    },
    {
      "constant": true,
      "inputs": [],
      "name": "closed",
      "outputs": [
        {
          "internalType": "bool",
          "name": "",
          "type": "bool"
        }
      ],
      "payable": false,
      "stateMutability": "view",
      "type": "function"
    },
    {
      "constant": true,
      "inputs": [],
      "name": "endTime",
      "outputs": [
        {
          "internalType": "uint256",
          "name": "",
          "type": "uint256"
        }
      ],
      "payable": false,
      "stateMutability": "view",
      "type": "function"
    },
    {
      "constant": true,
      "inputs": [
        {
          "internalType": "address",
          "name": "",
          "type": "address"
        }
      ],
      "name": "join",
      "outputs": [
        {
          "internalType": "uint256",
          "name": "",
          "type": "uint256"
        }
      ],
      "payable": false,
      "stateMutability": "view",
      "type": "function"
    },
    {
      "constant": true,
      "inputs": [],
      "name": "price",
      "outputs": [
        {
          "internalType": "uint256",
          "name": "",
          "type": "uint256"
        }
      ],
      "payable": false,
      "stateMutability": "view",
      "type": "function"
    },
    {
      "constant": false,
      "inputs": [],
      "name": "withdrawFund",
      "outputs": [],
      "payable": false,
      "stateMutability": "nonpayable",
      "type": "function"
    },
    {
      "constant": false,
      "inputs": [],
      "name": "withdraw",
      "outputs": [],
      "payable": false,
      "stateMutability": "nonpayable",
      "type": "function"
    }
  ],
  "bytecode": "0x608060405266470de4df8200006003556000600460006101000a81548160ff02191690831515021790555034801561003657600080fd5b50336000806101000a81548173ffffffffffffffffffffffffffffffffffffffff021916908373ffffffffffffffffffffffffffffffffffffffff16021790555061012c420160028190555061085c806100916000396000f3fe6080604052600436106100705760003560e01c8063597e1fb51161004e578063597e1fb514610322578063a035b1fe14610351578063a6c3e6b91461037c578063e07fa3c1146103d357610070565b806328ffe6c81461027b5780633197cbb6146102e05780633ccfd60b1461030b575b6002544210801561008e5750600460009054906101000a900460ff16155b610100576040517f08c379a000000000000000000000000000000000000000000000000000000000815260040180806020018281038252600f8152602001807fe4bc97e7adb9e5b7b2e7bb93e69d9f000000000000000000000000000000000081525060200191505060405180910390fd5b6000600160003373ffffffffffffffffffffffffffffffffffffffff1673ffffffffffffffffffffffffffffffffffffffff16815260200190815260200160002054146101b5576040517f08c379a00000000000000000000000000000000000000000000000000000000081526004018080602001828103825260188152602001807fe4bda0e5b7b2e7bb8fe58f82e4b88ee8bf87e4bc97e7adb9000000000000000081525060200191505060405180910390fd5b60035434101561022d576040517f08c379a000000000000000000000000000000000000000000000000000000000815260040180806020018281038252600f8152602001807fe587bae4bbb7e5a4aae4bd8ee4ba86000000000000000000000000000000000081525060200191505060405180910390fd5b34600160003373ffffffffffffffffffffffffffffffffffffffff1673ffffffffffffffffffffffffffffffffffffffff168152602001908152602001600020819055506102796103ea565b005b34801561028757600080fd5b506102ca6004803603602081101561029e57600080fd5b81019080803573ffffffffffffffffffffffffffffffffffffffff16906020019092919050505061041c565b6040518082815260200191505060405180910390f35b3480156102ec57600080fd5b506102f5610434565b6040518082815260200191505060405180910390f35b34801561031757600080fd5b5061032061043a565b005b34801561032e57600080fd5b506103376105fe565b604051808215151515815260200191505060405180910390f35b34801561035d57600080fd5b50610366610611565b6040518082815260200191505060405180910390f35b34801561038857600080fd5b50610391610617565b604051808273ffffffffffffffffffffffffffffffffffffffff1673ffffffffffffffffffffffffffffffffffffffff16815260200191505060405180910390f35b3480156103df57600080fd5b506103e861063c565b005b600066071afd498d0000670de0b6b3a7640000478161040557fe5b040290508066470de4df8200000160038190555050565b60016020528060005260406000206000915090505481565b60025481565b60025442116104b1576040517f08c379a000000000000000000000000000000000000000000000000000000000815260040180806020018281038252601b8152602001807fe8bf98e69caae588b0e4bc97e7adb9e7bb93e69d9fe697b6e997b4000000000081525060200191505060405180910390fd5b600460009054906101000a900460ff1615610517576040517f08c379a00000000000000000000000000000000000000000000000000000000081526004018080602001828103825260248152602001806108046024913960400191505060405180910390fd5b4766470de4df82000011610576576040517f08c379a00000000000000000000000000000000000000000000000000000000081526004018080602001828103825260248152602001806107e06024913960400191505060405180910390fd5b3373ffffffffffffffffffffffffffffffffffffffff166108fc600160003373ffffffffffffffffffffffffffffffffffffffff1673ffffffffffffffffffffffffffffffffffffffff168152602001908152602001600020549081150290604051600060405180830381858888f193505050501580156105fb573d6000803e3d6000fd5b50565b600460009054906101000a900460ff1681565b60035481565b6000809054906101000a900473ffffffffffffffffffffffffffffffffffffffff1681565b6000809054906101000a900473ffffffffffffffffffffffffffffffffffffffff1673ffffffffffffffffffffffffffffffffffffffff163373ffffffffffffffffffffffffffffffffffffffff16146106fe576040517f08c379a000000000000000000000000000000000000000000000000000000000815260040180806020018281038252600f8152602001807fe4bda0e4b88de698afe4bd9ce88085000000000000000000000000000000000081525060200191505060405180910390fd5b66470de4df82000047101561077b576040517f08c379a00000000000000000000000000000000000000000000000000000000081526004018080602001828103825260158152602001807fe69caae8bebee588b0e4bc97e7adb9e79baee6a087000000000000000000000081525060200191505060405180910390fd5b6001600460006101000a81548160ff0219169083151502179055503373ffffffffffffffffffffffffffffffffffffffff166108fc479081150290604051600060405180830381858888f193505050501580156107dc573d6000803e3d6000fd5b5056fee4bc97e7adb9e8bebee6a087efbc8ce4bda0e6b2a1e6b395e68f90e58f96e8b584e98791e4bc97e7adb9e8bebee6a087efbc8ce4bc97e7adb9e8b584e98791e5b7b2e68f90e58f96a265627a7a723158202515c3dfd34071f74846f6006be7cf150d88e0498f0e9c02987d9fd43b167c6564736f6c63430005100032",
  "source": "// SPDX-License-Identifier: MIT\npragma solidity >=0.4.22 <0.9.0;\n\ncontract Crowdfunding {\n    // 创作者\n    address public author;\n\n    // 参与金额\n    mapping(address => uint) public join;\n\n    // 众筹目标\n    uint constant Target = 0.02 ether;\n\n    // 众筹截止时间\n    uint public endTime;\n\n    // 记录当前众筹价格\n    uint public price = 0.02 ether;\n\n    // 作者提取资金之后，关闭众筹\n    bool public closed = false;\n\n    // 部署合约时调用，初始化作者以及众筹结束时间\n    constructor() public {\n        author = msg.sender;\n        endTime = now + 5 minutes;\n    }\n\n    // 更新价格，这是一个内部函数\n    function updatePrice() internal {\n        uint rise = address(this).balance / 1 ether * 0.002 ether;\n        price = 0.02 ether + rise;\n    }\n\n    // 用户向合约转账时 触发的回调函数\n    function () external payable {\n        require(now < endTime && !closed, \"众筹已结束\");\n        require(join[msg.sender] == 0, \"你已经参与过众筹\");\n        require(msg.value >= price, \"出价太低了\");\n\n        join[msg.sender] = msg.value;\n        updatePrice();\n    }\n\n    // 作者提取资金\n    function withdrawFund() external {\n        require(msg.sender == author, \"你不是作者\");\n        require(address(this).balance >= Target, \"未达到众筹目标\");\n        closed = true;\n        msg.sender.transfer(address(this).balance);\n    }\n\n    function withdraw() external {\n        require(now > endTime, \"还未到众筹结束时间\");\n        require(!closed, \"众筹达标，众筹资金已提取\");\n        require(Target > address(this).balance, \"众筹达标，你没法提取资金\");\n\n        msg.sender.transfer(join[msg.sender]);\n    }\n\n\n}",
  "sourcePath": "/Users/miuyaodong/Documents/Eth/project/trufflevue/contracts/Crowdfunding.sol",
  "compiler": {
    "name": "solc",
    "version": "0.5.16+commit.9c3226ce.Emscripten.clang"
  },
  "schemaVersion": "3.3.4",
  "updatedAt": "2021-04-25T07:04:48.893Z",
  "networkType": "ethereum",
  "devdoc": {
    "methods": {}
  },
  "userdoc": {
    "methods": {}
  }
}